{
  "description": "Liquid L-BTC p2tr spend with ALL+DEFAULT inputs and p2tr change",
  "input": {
    "network": "localtest-liquid",
    "use_ae_signatures": true,
    "txn": "02000000010207890e68a96c453ac03b5de4b537e3c040c98071c6d153721960a7bab329f0000100000000feffffffd20fc2baec675f7453dd24fda2b04c88be7e7f44516aa85d16a8539c6adc595a0100000000feffffff030bbd8ce9c80307c558709c70bc70bffdd7ba942ba546f3a5e144dbc0aae982fa000976758231f5995f33327db97d9480d91df919d61a13156cd2e648da773130128d03dbf3b377d7d01d225ec93d3e70284af4d1d8397bcab3f60f773a83abf3a9a621160014c8834fe8c97c7ce7bc27c4972d474dd5086882270bd15be7027302ba3d5f95813d0a824d3bbdbd933920495e1bf98f41e3a350c73f094acb2c56fac8a994507afb839df34c5ad04f1c721fa2f5ddec542d9756b927fd034f54852d6f2c7c9556aaa8f98f25a7aa3d1aa26a6f3c09f51458a9410218c004225120ac73968281b866aacacc3f339549c3c8301d203e2d40cc33df78c17fd80389970125b251070e29ca19043cf33ccd7324e2ddab03ecc4ae0b5e77c4fc0e5cf6c95a0100000000000000200000700000000000010000000001000063020003851f0b63ea2821c5887bedcbe1cef46b9afab3dcc31fd3eebc4956fc2410bd351a3ac16bda617fe1e9043ead0c0d3574c9574ec9e447b22a517f9bf5f370a37979b84356dd696758d401a08c30e7867680b58a0a9e1d73fda6b35a9a297fe406fd4e1060330000000000000001863bcd00a8719fc1a38e1b4a5129968b0dd783c8c372cddb2959b4070d0cbc20924e5e8c05662ecac6b3aa475b5377e7e5b43cb2a7303d1f4d9026fd1be46be17a917a2450f8127c6ddae35404479d5a63fb1d27220cbafa7d807dbb927e97063b1f4ed090718a8acf2753093aeb84c7e8f7419b0edafb455b5c7f18ed77e254a00e191d5b71d2b735982f7a6abb4f0fe62bf7ae27735a55fd61d9bf87de9a3fa8c0f54add759c1e96b64ae74102a81ad2b85f7265ec1841a1325149191b76e62e80d32816cc6504defba4cb40ebaa98e0ea8866faefd9cf53fa5d09e47646c2772ee9897c7c7f49919cf2d751b5d9233c3d7a1d85d2ef83d35e0ebd227111f55207b085c280bcd2c0722c79ce176ad089217ac826467bf762f2dfe2c8c13733110e2798b8279f62c898092e35cedd276debd80d758cdd820e0c7c5d8826c72a816b21fb42ef4573b0c722d9a627e6dfbadde509539015bf1478cc5de46f9af1c7e549d5a4cb20cfb8662668be65775ae6361727432e780687bcc54bb195d839368b8686a53d1ea09d6f783923710d99e0878429979b30d3fd8b2a17067e417b49bdfcdbec0a71304aeb9fcc4faaa60ded425e2b56bfbb1710c7bf8f49db6fd8b2436f3e5a12707775641f8b2c6f911cfe2c69684b23bb4256b6a5c1826b211ac3c35dc74bdf4c3f61c865e652e621dea07328b8e2a863eb06d1b125bce24875a59cc924d13b5bad0fbf85e8acca090b2929c4d39b44502a38358a4928a2630a744d58280b5ac4916fd91d7b837c2be25fe7119eaccee3229d6fc38ac3e906a0eeced15e242f5361093ce849ec9cb23074ce4069a9ef65080d0f869466f70db80632978a18524d397b82b0d5c49d58d2bd36cc54aede53f529f1527d21e6d589ab065e6cb394fbfcb9442372ee61cf9f5ea27914f04b9af031c4de631eadbed70b22410028e4faede8f450efc5e2a31ff1652e5754d74d93aafa304c5d5489149ffd898ed81f5ed8973524831d9263d20e2edbbddaf25cc1102c6ccae3abc0ae400a2d10f598ac840130535abf34a6205f94d46ad46d1e5e32be99e05c04dec1c3dc9a23df3ca13e7cb9584aa8f8afccc586206740b225415fadaded99dbdc54fa399e2cf53a32cfde7a8db9ea1ef8b70c15ff31ac8f0c3b5b5e319a35e6f8a0f0203b3a4c63ab90ddd9bdf3858950d122de6b016404cb19e4799ded7d6748665ca7ea4f1231f2accddf6c354df610bec7546426ee285e39ec335c27093348f98d1ba17e7195f250bae170b1d1d9997340ab209c583f92b90323a2ba976e089b2d4c73982e6bc6059c20326fee3851a9ffb0b10a212a6158c945ac862a80c70d7079bd9ed7084931b2aab08b840a723f9df9133ea29b43d5a65d37eecb33de09929fc79a4575e8d73d873f8607536eb5a16e4a0a621903190046c32e794c958b93c10b21e5b6097e2da165ea80a7f5a2610bd3137b6424308f8b22717966f4b2fc490db0ca7903c36776f0ada2ea3791c3a79fc0476ea057e48d4bdb7a88abeb1b0a9b4b7af5da39d70a0ff283980e579fe080c55f7cd80ed76bf879c73b8e7f6f789add98719397d7050fd5d22e548e60d5195544adf63f897f1ad84f7d0de9fb1384c4c8a09c8489640b0a12f70add8aacd1989c65fb15c70dfc7a0de1b7e1735b82f20fa50a624d8255a2f7e2aaed1121fe04e3cec5ad4ad605da765cc76e858ed4aa9b9343d9f0c239ff890c086f2b19764a791554b2471da3842fae3c51bb65a2a5e122c9a77f32c5a0e9469eb2080eed027a3620dabaf0dabfe6f77163d0c0975e75b7f5a5616572a94211dc1cc18f5813a6f5b910125935ddda1be557128fed1c80ebfa65387348daae80a9b487790a0b2456ca1f656dec67d480863dd442d098919cf5bbaeadb6811a89a3868cbb39204fd822ee933b2e3f4a7fd818fcfb6fffa923391b33d31e0ae49ec9e32d74cc1754d4f3b05b67418334af2fc6e16e0d0bfd91a88f3f964be000f707d2311fad3156094e0748be03ccdbf364910e3b579c3b6944de2751430eb7d0fad754bfab22f70b27f71f2b0a7a97ee49c2e46464c1991fcf070346ae9349d19957f10795f7e2e2231b79840817db00bd7120f76aee615ce0f2e11897711d159b77aeb7b0f1c8027308ff98d75591509acc062f2e767f2f35a710651e44717160ffc473060e6f71ec8a7362e53e64c5e79cf04eed0a082f45937a8d0e31048594b741530b9b1ca5e51e4d124a701340265c780364b544a112896898270f8d356d620d33a07712b18974f7b3451485823ddc9a32bf79b0db3451e0f6a9e27266eff3f47c53f62df6b4d980f4ee002018f6a72db7adff3344916c89e09fdf27e27494b900b798d1ff4cae4a242386bf5e55dd58500bd082f76d03d7ebfdbe51d02519a8c387a62357ea7294a63351f0c67e334ce2927dd07241f44c3d5c59ab49be323c576d0b78ffb44fdf31bfb1754e1655ef9f32ca1149404baab7c7f609f4bca772e2dc45ad11d22cced8f5e4158b21eac1fe5f27a7469f6646e31353ff2e3875fa530ffd3bfb7ec105a5a610e8ff3dc895f98ec1a601b1d68c8a50a6872657be2e300a6bba90ec2474cd960a60aff37e56c1cb7903c5cb6ea4912b8c02d37d149fa616b03caef117e61acb323f435f1b3cef891e67f6369e3d09d0567948cbed200e5c4c36c5957215aec323763785a93e7cfefc7d17f45a81fe123f7d2d9183377de4f77bc4cf9839012e1e1603a413f02d9773bf75ad75a7db7bf8670542ff3b554b7ea0d464572960170d6f28d9bb1d08e85e0e57c085778e5bae646bb8d7c20339300f94e8093112f947c68e738944a3bbb4e9cb8a5651f55add6237ef1f1601f92aacd7f77363a80752125d283a096812662335edbe18506fa29184e5e597cbc502f2708cb871860df61b862b153321e5cc002beffd6d59cddc9d7ef722e13e92b583c48de50a6e270d4c0694f9202a1df8a74fc34bb3589a4b212f42c8868973ca9ffff8ad6509d2dccb742a3ab652c113f19999fe72a49469abb6414971c2e06fc1818fc69949708c43de1a008f74041b892ed1696e7cdb01519677163b577977df6d67181fd2278d80fb2e320986adeb2e5cc66ed3aac525d85e32c0002d8fc87bac2a532c2464cd91fa8e034b65f2db05b60feafbdc526a3500b89d7dc0a097bc9ab701391bf141950f9451266feccfecad10e205527d92c83b730920234ac86ec77dc3e0b7aeeca6322827b460c51a5bdca0d0556cf49db7243ea46ef4f37e250e46bd1ae550bda91ae7236c73e8ff8242bca1f21415cb80990f6493772468e2425b736e20f9ea46e067a56a7fb1028dce97a808ad3cbe88fdcc144306c8df22ad416a44713e07ae551271ab75acbf3ea448e6de257e8ca2d3b08485c51e717dc20d11d3cbd6d5085769ef3f908518b5bf652c76439725a0ae3a5c7e68de3814c74dbe3c4ea91d00262c0e83e335b16253d986d09b5b0a6d4d81363d0022c21db143e84db1519de322bde1a653868ee4fa11b87b7d8b5dcf497e0419d99630926177e258ae0e12e6cc8ac2569b88ea3780a36efcc7f0c9b641549842bd134397b0383bb8362fabe1c1a05e140a525f6be8355f9e91b07fa4b209ac39e392d47b251ab8b87449fb68abb54bbbaf2929c5eeead38755019eb396539f2421803cc38bce74b6d0ad4c8cd00853a226e39ee880c322e443226241ef5374e13f2140464c0b2912442345c40a271183c89a6d2fe844bd10101f93aecc4889f29059a8bf43ce4ae6ad5341f1a75c6166e77d9104ae17a63f5e5ab0a3b3eed1d6a2d3a19405e40534aea72aa3bd21aac429cfcef2c09beb9fbe8212c00e467c35426e521fc0f7fcac0fa0d3d9ad068927b2737c1bf475759b26f9c8cf5fe9dff4033468022bbc6f61201c703ec006776e3028ef43c9e19a7dc000ab16168f10f54cbf116759fc035e36cc8173c3261be789c0cb738b3691b1e40f3b52cab65f09fc422f9397c69ef0ea792b5fedfdda85395b137e5d8895852f5f10c7e67b13559e4d83a01528156be47062e32c7c570cd8f3b317fc3dd5f4111f03ef8697992f63fc2849ee5cbd3b6de42e9b910950701ca558c8e6e69e4d163bfbfc06dcbfb17237f27148624b250292d3b84d956d0bcada4245af450e9c6c352b4a54c0a32837b7e855babd61cbcfb44d870410c89f53177ae0873e72d874554a61599427ff7f9de6638ee1673e1ca6d565b6c5c3d95baf7f67549930b9e16316c17059447d3960270facec0ecb3f95ae92e267a0d76643face1bbc207de73e75cf40c5991840909cc2dac869261f0358058fcc68adfa0b5c02b7bfa9e83dc55712d4201a2355730c809f1fee12862dca71fc00b236e349402d13c222669d3590b86644d6334f887903d2cf0d02dd6a0c529b204d68b70c82ce2d3a19318fff227b858b1fe15b76c7cd5654f7fe5fca7b09c8ced1c6028ac70b2b8beccdcfb1451358e719cbeae6ae30a658300b8339f5714e0213e5f532896d6b31d869294e031c517327ceb34aa17d923046f9d6e120d6f1d63acfc7fc79cd35dd22cbb7c9cf0644395388c93efa0059f59f419fe8c5edcc4815b1a2695f73c4ab493ce561ebb0e8ebdb4b123c08303c76ccf5917c65de053d4b5beae81a29c0f6b21216d65163fa4c645c35cc77ce10c34acb465dd4ec5cf180381ffa69d2087ddbee6bbdc0b809758c4d692a5d42c1b6b6562b7161a7b40a364e2c5389c58d38b5a8243078a6584c87c3fc2f091201b1a054952c3157b9eaa6fa3d4ba843e66dd704818ec5f22627d6450e48f57698a28742323a203e71bf23accb5ba9d942376e3cc1063fcab45911018e4fef734aeeffdf2194cf6136d7aeb32a6c0ca0437cbd16ee52eec6cc0dc92209458a12ac8a529afd23f622c813fb0e6d45bdbb089fb63a76be9f600cd920c67f784af588009ae25afa02538ec54871bb08c66c2dff3a66da87abca810d5297cf41d88a4bde50e8833da294702ad32663f90cc1e6dfeb52144c10424988e94e83430da5de535c7da0612e60a72990a61a333fe13a35a5dd576c09928e419187e905abd5c0b30eb9a96aff32de4b3d9520898a5881995b909bafd75b73fce01694998392e9bd3779a040d583263d70f9c08db0c150f0d2c2c69f03a2d6ae9dc3f0af73bc787a97ba415f6af9ac48f50a6effedaa5b3814fd47a4a5d99946ce4e23c02a0a4b5743c593276b0b6f161c4b16a9c8a7443fa7cfca3fea2f0c95f9d9364fc623f905dbbc77010752788a7d008b9ebc6e99be17482fad498bbe721a7cc50bb5e8899dcf861f1876a32d7aa765b73fd8cd489f147d02e15ce995411b5ede1db935d16fbac733d3dfc13520f780fa82e3d68476f53110cecde9e39f339f1781d6861530c29f9cab01dff6e54f4effb0d50902bf192fc199362191854cb07878f4558c6bb1b5cb56f6b6372d4f5ea076bd1ebbef7ca50b06c7aabd75099b2f010d64d93655014d555406c5720035d54607665659b04a6a884683f30401afc621f09312d67ba44a9ae4e60feb094bb303cd30fe7e37e972ad1bc3e287495adf97cb50db06e92c5fec78e570d9f48792b23720c07088f5e27a88bf4cb154195e97a79236cdadfd0fecf98ed5eeac8a95aaba3a3298d00104e80c827b903cd2690124bea6dcfab33cc4cef9a814a95b8a76138f909b0e5d854cc0cf2110baf09b60b3d3472b2500680e8ea39861039d1133f96b73252ec627219d8fa2e97ce53b2db562f0b8b7d430bbfae7c5f151c0aff8ad916745faf8416ece1c241d10b07cf45958ef7b202a2e9eb993e9bc6ae85a2caf7ce4c231c10f5fe9c3e5df6465f744467fa6f8f25134f681bc44e36cd3ce8fd56302000396f820ede6fc753df642b871662622d3d1bff046c8be376ccaf3b9dd590935c6c7213f11d39ab4aacee596dae0e5d429098507789aa97dfc91c9a369cf662f0dd6e807241aa021107710e654d1e4011492ad3f7ea2f918eea15529da98bc9a2bfd4e1060330000000000000001453a76003da2a228eb198e7dfd4f110282c7d6e4b1f91a323bafa38f894775d83cd5c4047fc8f9b8a0404e0e096f25f44d9ac9dad4750cedec0b0d38876f5144c27a4119e7a903f4225d37c6ca2abc2db57353a2145b7bea260edf4e9256995f373d059082f852cfd8060f48b36e6f13617d1ddda3127669130382ef68fb5a3cd7a12f779bbecfb9810950b586c01d30adcb0d17fa2a09fc7a13d44e9f5921fb72478667629485901bbdcb63a9ab753f43697bd597588a60ddb5c5a8d0c889d12ca5e95935182c78bf9630db43dc2b4797fc577affedbc9a61fda7041d43ed9d22d82274878c36ddda8c9f7343610b2d1fdbe8f11eafc5a2132c63c20b18a63e2fdd984ddd9533296a84a96723c31ae4e0f7be30120380f8107e9fd73cfe46cb6bde7c6a4704a70bc13cfc8d3e25b004552447f08239d6c5c92bca5d3b627dedd6507dae85d5538fd133b8291f76834ebbd8ec8eb294f53ac7fb787cdca0208b5d707f2e0a8a26d4ff61eab67782f61748138cddb16c5f7b1dce6ce51558fbf6e07a342fdd66289ebaccf278afaa8f86c36b5dce9f367241b9ee470d6119f290a6076bd323843d77fcf830169e81857d80db96e2a9b6aca54470e675749d58d9df3a522a18fdd4b1f1de759a523a8dfe970867c59d74589b6c51f6c1d41bddeacf555d4f78235835171104e1469428622493076f7dd928b4b75be4ed593354cc86cbb24c2b8e7f201163a2ea15bc1b9c54f99ec9898d14b1ca720aa4fb061002809df94ebf9d871c1de494005e438d23a77fd43898cae862816a9646b218ce502fdb9eb648da7400e5011272d4410c27d6b9809e731fb717f9e616010b86ed2b325b870baa1d404e7db131af94480c3cb7ff532a24e27ac09c87aa6b1995802e6a60963844a6e1dbb8bf80b7c279dfb201b92450782c6aedf78a943fe751863ff9bc57a3cb59bf6148911ad0ad0fadb05ad40a75fdfd80420570801cd72e388ee86660edf91db1b5378e0719b62b5bf5e6408f61d89068f3a0ecb5e2879308a7964b69a6c66f18bc9eb7f70a034216cb97f2090c0fdcf3f9d4e2121bb2f73ac98e36e069be1dfb7ff363326adc1ea54764f34043d78204761904521decec19ba8572839b64f3b6172da195b0b6712fa14e5e91e0ec0d9011c28feb890eb1dce32aafeb4cca0d470649106f80dddf7b6f096741b8ac0951f45caf97458a65ed61da1914fb7a49fde801d76bc9faca74a414cd29012c0a01595a0699e11240c4f6ab8fb2a7b1352d6873afeef51ead62734cb1b1c953736e5a9af42ac97019536769946784f1c4d15456caecdf6a3cec71fdbde8baa7614272d46e21f4ba9819b26b27df6481e4802f442c9b4e78deff61ac7d54be36baa969a3b9f10aef264bdcb20fd5e22f960c3a20653b87ba8d0e7bce2e0f79720e910b143e4fa3570dccc96946795acf8a4a3c0b15310236fffdadb6ed47435a2a3f28610d710db9cebd5a195926a45b85eb8497adf4f4096bf8c9adcc313402d337582d12819d9bfabbcaf8066b87c5e7c1c37e52de66bf5564e3fc72d74fdffe47e42e8244c8e7e322153373bc8f3ef472e4ef5afbe241695f549c5ec5d3b8139c22ccd4e6c7fd782535c80f8033e33a5c96fba0aaeeeb741e00e63e66acc7736691425951b3a48f88b77683471f2c70f6bccf8541a82ed0a212973c4dcd1ec44fbd8ea2aec090527a699453f48ddebfe1f432b8d91c0d00e88243d90eadfe7b51ca88448da21e676837fe88ec6a41a4ec4402842c843b4efbaa556d87673de2c30de41813c9a3bafaa806e8d85a3d5e16467ae2b958d905401eea74fba320e90dbd194de524b82b16cae245215cf5d0dd240ceb1bf61fdd17514829c530eeb879d02aa5592a3af128bc6355a11b3856f1e76210d0d278891e16e3467a77f020c30526b245d615078a7e1edf985804d941d0f723e84b10c00d0e28b38ab7fca353b5bfbbda12fc04d4df7df99a7767746559599d7c21bd88808491150a11a6d2e7bdddaa08d8abf040bd36139e47bd7b2d6fcbc5db44a3e22d1025e9a3ce021519e1c4760a375c17009b980ce017053d85637213d1f33f3697cb22edde0872e9a0a6381ce60652c2517d0ae120b26dc8dfb3c8f460446c4a87eb33260910490f45a426c0be585091e1587dfb7fe5d916eae9e2ca71a096b2e14b0fb7bb32021d0895b1fe83d6643204ee883e237a6f70dde9a873647491ca76e103a51600848ade9da2ba10e805e3bbd5bc9fdcaf1f8db042cdaef9659a8e27916db757595afcf5e5053f1a5f99102cbacbafb0100f4dd88fd753ce1c9546966fee441b9ee8cba178d19b0e53058d6fac15dc54236b63301981332e38d0a6684c607295c07a3ac0d7b6673b8138cd4fce33862c8865f4a4236badb590468387b3dd3eb8691c4186d4c61a3a0481ac6853dfb5e751709543a019a8789957a9eeee1e507b41dabd60579ffa043199459f8bae1a666ff6dbdde10d432134c3a73481961dca99c1f50a804e5d2d98decbedb2e147e64e13732977901316de5d5bb3db36c5a5231faa4644f64e09842bc681b17d57c2cd6de38dbd8d6b60928a6755c1617e1a41fe3d3f9252415bb6b994ebeef7fba97c79e10777fdc3ed4f1382034957b8b57ce2907eca31c1c45ca8ca8eed7c89955c750984402102834bb52e2da5f1a04de419ed193d7ebbfd3d375d00520132564006e8e18ce127e0956c9daf1d7df98e52640112dd0737d30469694e3baa6654b30e180c3b9edf8d59086a3cab9ef3ff9bd0cb75ec2a4fa0a3e73873711b00b5d9b24aa63dd9a292ac484676ca81267cb501955c91fc7d481636060eff10b32c1d3e5cdb9bdeb8271576db3f2dd17db3e5cc14051eb71fee7449ae0073ed6ed6ec740c77a22cd8c2318c81b5c25b0b6b1d1cc52dca2035af1face4e32dc58229401874402093bdd3706fb20dd7c618309747c8f19938dd846673f23bfb78069940d9109649b9e3d3ff8a58f111be1a3db7ed126604436b66def48ed4bb896636fd1bac560313a334dff8dceb2f3191aeeeaa8dfb4643c366b3b6279e5cbadbbb782c94c6eab99c4d42b6c1c8d24c72c5c6296f62cd5ffa5de70ab9ee761123f8eaca7494de6905f3b63223796a67ff3e1c42a7c3d645a9bac9a6d4ef1744a9a06e564724cb9fcf7521d9e3446ce144040699b59e676eb8e240a60f6938ec02db854c490b956dde62be88b9ae78b3cb0efaefcfa42e79c3ee611170bb742b35b43b8f96b374641acaf0e9e52b17bf37e2d294b66af3c4cd3ef24ee7665a83b5ff4c585b679e6e35e7745d6e6540dee2ec822fc2ca373c2806cee8dd29d97efd4edc82518b4ea3137ac3948b9805500ccd6514b77c1f3f458d49bedf3ba51707ca59e36262deec99f0ea0cf93618bb720d8caedb61c817896c9448bacf976d45f8a31bd5d2c357fe11433b10b0bd571bef98fd05c14fb538f4dcd6b130bd5bec204e8c7c02cc0287117a7f8c0caac543c81a046ab1fbb311491609d2af0afe5b46d43324853e8d9221c1c2bd0c1669b387f2883d66f66258dc86d3326dbe7c6d751322303c3d68cf2ab442b521ecc4841eaf394a148245f07882ac3b13990f8f2362d7e66db227cc5ab1b38747d8b66e46bccf77d232ccd32314a73b2fb82488592acdca14e0567cce509e69bfa1b85f7b1fb0a04e09f8255f884b6fd472215e8036d8bf832f1be3efd44a96a1a6e4654eed9e8bc832347978b6791e3c70689282a670b3b8fd4357eed233ac9c69bbe4d2578bbe36fd3f849bf504d676264e8de10a605373f96139e6e7aa6ffbb59c22f75234527f6b5202392883e36b502c7531c0150e1165063e6b92ea1460c52aecb8b45511ed43a60e12daa06b1b5ad28df332b76e820ec8cd6178f180089ea79ae91eeb30030b54d669a0983de4335b51a7ebf776f1ccb3a445a06a80d620e34fcac25ec534e98ef6b20f8c89decf10bb2c85a94f0a626f440a4e6305d35522736817991b6c0fe2bdc666ceac565ccb383012be945fca4552bcadeb7cc404452a139b983b2316d25dbdbea21d3aa89f473b8b5f602117d52137849697cb61323c4686ce8c60a83afa04d39ba94197cc120c052b29a83755430f23d9ceb5351c3d312fc577acf6403656bd473a4de1a7a138bac62aa46d4621a5189d146a72ee04623057ce191941d79cf60e83f589539178029a8636b6d69d5bb41c253c778c727ea07caf9b2e4cb7ec506fbaca787ccb4ba0664f5cf7319ba80f3e000736bb641da4bf12940772e44512ddab234699dab3260702a4d4f07857d8a6b0dc8cda9f893950d66a41bef58038834bfa60b1300ae090041f7a6f5a925016bcde9d8ddf4b9262db09d66e834c914338e4e16f2e74a0fd272337bd05fe98c18bbc5e8bc0b5756053466fc9be41518e18796dbea21626a0a869bd0f49735147a35d33633ba8fe1cbc84d9cb7b16c2a83c48b37ba79b2190f8b4971db37149e47fba58bb039d74574ee6006807e043c536e405629fca4bd7d112b9b2095471f6fc271ff587c714502aca7203d7e15a6129f26e836c95a6f5f7b053c3d5cf7f9edacf06e1ab7f11756f2bd051b8fe40fdc5f0871b41e989d423b281bd441a00785b3c1ed3a8f0d173820231fb1d41e0503bd6c2da7a218c657d560204e5416ee26829fe68624e9be6126077c7b1a61b3529d34f8210503442be1957210f4cd5fd580d5e44b0bde30089b99f4f3ce4d06a99e8a49c834f1d7c2b3b34b90c0302e0c98a49445e1ce16a484c9f3891650ce731810be78d4e6289c36b39de5881c8970d745cea928de11545fc287353d6c393657575378e6e5321c32c6f39535ef5bc9eaa7f1fb88553297a23cfd3cb3cc52152572f7a9c42c4df02b57b28e7790281acbf58b1dbeed833b90e95baca1ecb18f7d04a1e139774e3c03d171cdb7d0010f6ee4f67c345ca3037011ec78c7060c96bcc73fac03960c971373f1edf4980e8a169d29d7ee80113be8bb8095f3684af4542f406ad920665c484cf8fc6b55f992bb8835f4703dd4d8921ced6905f8305d8ad820e568f76c52976e041e216fc131b6d31ca153f7350537fd71f287da19cbea7e6872d5a3b4d4b5a56527ed276196a8fc39f1f667f858e10c20f63525b65291ea692091753b615e43ecfc618e2fc9c4c7b810596673b9e138d5d4f9a857e41ca53db796355c493bd914ac13f2518e4199ac9da6aafe6fc885ca17f2bc2bc8e6fcf4f691df9fbceed75df451a560cebdef0a33efbb93d3b1e4df244104c33c525147f9563692a53c59444bdcba6d51a7171723ac26e3a86bc8a0766c0251a080df8b7546bb42a59438acb683a943f28d0c1b8ff2ec122a51f881f6c1ce064d8206812721d8e833f11ee4fa688357cad7bb6f39158531930c5501c02bb72b20302550d5c9491b1a05a482d703928b6a6f91c57c446f220281b955f95f28d4bc147187fe34b48b0afa6887ce832d50bf4a134336053b923b8b0eab3e04b5f535c4b82e31a258e527f6c5718ae904e8dc1aff6cc456e8e93e00aac0a5aca928cce51728ab14d3ea8d115ce9ca43999f4f6efbae845c14a7aa8c8f3104376deef0cd3fa9f37c0a1bc0be53d30ac236f6c485a4e138eab23de0f9733d2e975fb50a7135a719c924d4eca7eaad786adcb42bfaf0937f26de787f5143a2e235e66ad321cf7d056940b53da760b95d65d215dccacc4cfb15eb8bb27e5066e61bd3d58e4d4a6370e7640c1d40146ac952a2ae9f87f4b440e41b66c0d8f7eed01670b0f1970ad35ad0f81e74a06b3ac505a4881bcc512d92aafe1dc7362786f146e6868fc89770ff65eaf6b04709266d24918b3daa14687e802aff84d8c4f6ed1c9bd74503b581aea34f30000",
    "trusted_commitments": [
      {
        "asset_id": "5ac9f65c0efcc4775e0baec4ec03abdde22473cd3cf33c0419ca290e0751b225",
        "blinding_key": "03d48e3df01004b7c52d7dea7afa2f1125adbf6a9e04692d01f62f84115457e158",
        "abf": "3fad6f8ee7412df34ab7650bd531963de553f22f58a88e35fd0dc35bb8f200ea",
        "asset_generator": "0bbd8ce9c80307c558709c70bc70bffdd7ba942ba546f3a5e144dbc0aae982fa00",
        "vbf": "9b6b21b5ee6095b523971559d38a0d41895f6d11a06bd4fc51ae12cb778ef7e7",
        "value_commitment": "0976758231f5995f33327db97d9480d91df919d61a13156cd2e648da773130128d",
        "value": 29000
      },
      {
        "asset_id": "5ac9f65c0efcc4775e0baec4ec03abdde22473cd3cf33c0419ca290e0751b225",
        "blinding_key": "02566c2895176a03e22b1ea19b86c66e6c1d9e1f6b62b25926cb71717599fe67e3",
        "abf": "7c4d63e3ce990e792fb7fd8529d5a7d99d226c603ddf4afe3106e8db77a83281",
        "asset_generator": "0bd15be7027302ba3d5f95813d0a824d3bbdbd933920495e1bf98f41e3a350c73f",
        "vbf": "bd1fa344ad0caa3828d83f71aa0f9671743265846e7d2b7a57fcd8302a0241df",
        "value_commitment": "094acb2c56fac8a994507afb839df34c5ad04f1c721fa2f5ddec542d9756b927fd",
        "value": 270968
      },
      null
    ],
    "change": [
      null,
      {
        "is_change": true,
        "path": [
          2147483734,
          2147483649,
          2147483648,
          1,
          1
        ],
        "variant": "tr(k)"
      },
      null
    ],
    "inputs": [
      {
        "scriptpubkey": "51205624eb967de3594a221e4dffe81a8bfef204fc255c5fdaaccd5626ab07d1d8e6",
        "asset_generator": "0b1257095ec123a2b32798bba687ac75bceb4477d9783f6f64b8c59b220b3fe6e5",
        "is_witness": true,
        "path": [
          2147483734,
          2147483649,
          2147483648,
          0,
          2
        ],
        "value_commitment": "09d8b282f73cdb041db26b5a6b252d397ab02e9a9b5da9c1197e48053e78a526da",
        "script": "51205624eb967de3594a221e4dffe81a8bfef204fc255c5fdaaccd5626ab07d1d8e6",
        "sighash": 0,
        "ae_host_commitment": "",
        "ae_host_entropy": ""
      },
      {
        "scriptpubkey": "5120b850370392dafc3e7d02db13b447c927e98b6439681fea582401e570904cd6a5",
        "asset_generator": "0a3b8c19d66579bf9f3635a17c48819554f8782990ac2934c7a5a2f0b660b769be",
        "is_witness": true,
        "path": [
          2147483734,
          2147483649,
          2147483648,
          0,
          1
        ],
        "value_commitment": "096090a6269c7b3856ba0d7f7e6587a4ad16e2d32c0fb0500326e52a522820d746",
        "script": "5120b850370392dafc3e7d02db13b447c927e98b6439681fea582401e570904cd6a5",
        "sighash": 1,
        "ae_host_commitment": "",
        "ae_host_entropy": ""
      }
    ]
  },
  "expected_output": [
    [
      "",
      "474ddea747e0beee86cbb3db3282c013a781ede9e3d9748ce0b5b96a3e3f321d9099273aa26050dcbf9b3f167e9191e7e51a8fa104b721a95cbe04d21caca4a2"
    ],
    [
      "",
      "94cdff00b9a4dd514056d795d69647143c2b0bc6e596c4a546c207e25cdbc4f27a3b091991c055e5199c1107084fbcd896fe8aa94c1a608a6d700f38078143b701"
    ]
  ]
}
